{
  "contractName": "ClaimData",
  "abi": [
    {
      "inputs": [],
      "payable": false,
      "stateMutability": "nonpayable",
      "type": "constructor"
    },
    {
      "constant": false,
      "inputs": [
        {
          "name": "_firNo",
          "type": "string"
        },
        {
          "name": "_ssn",
          "type": "string"
        },
        {
          "name": "_firDate",
          "type": "string"
        },
        {
          "name": "_firTitle",
          "type": "string"
        },
        {
          "name": "_fileHashLocation",
          "type": "string"
        }
      ],
      "name": "saveFirData",
      "outputs": [],
      "payable": false,
      "stateMutability": "nonpayable",
      "type": "function"
    },
    {
      "constant": false,
      "inputs": [
        {
          "name": "_firNo",
          "type": "string"
        }
      ],
      "name": "getFirData",
      "outputs": [
        {
          "name": "_ssn",
          "type": "string"
        },
        {
          "name": "_firDate",
          "type": "string"
        },
        {
          "name": "_firTitle",
          "type": "string"
        },
        {
          "name": "_fileHashLocation",
          "type": "string"
        }
      ],
      "payable": false,
      "stateMutability": "nonpayable",
      "type": "function"
    }
  ],
  "bytecode": "0x608060405234801561001057600080fd5b50336000806101000a81548173ffffffffffffffffffffffffffffffffffffffff021916908373ffffffffffffffffffffffffffffffffffffffff160217905550610948806100606000396000f30060806040526004361061004c576000357c0100000000000000000000000000000000000000000000000000000000900463ffffffff1680631491617a14610051578063e76c3dfb14610277575b600080fd5b34801561005d57600080fd5b506100b8600480360381019080803590602001908201803590602001908080601f01602080910402602001604051908101604052809392919081815260200183838082843782019150505050505091929192905050506103f8565b6040518080602001806020018060200180602001858103855289818151815260200191508051906020019080838360005b838110156101045780820151818401526020810190506100e9565b50505050905090810190601f1680156101315780820380516001836020036101000a031916815260200191505b50858103845288818151815260200191508051906020019080838360005b8381101561016a57808201518184015260208101905061014f565b50505050905090810190601f1680156101975780820380516001836020036101000a031916815260200191505b50858103835287818151815260200191508051906020019080838360005b838110156101d05780820151818401526020810190506101b5565b50505050905090810190601f1680156101fd5780820380516001836020036101000a031916815260200191505b50858103825286818151815260200191508051906020019080838360005b8381101561023657808201518184015260208101905061021b565b50505050905090810190601f1680156102635780820380516001836020036101000a031916815260200191505b509850505050505050505060405180910390f35b34801561028357600080fd5b506103f6600480360381019080803590602001908201803590602001908080601f0160208091040260200160405190810160405280939291908181526020018383808284378201915050505050509192919290803590602001908201803590602001908080601f0160208091040260200160405190810160405280939291908181526020018383808284378201915050505050509192919290803590602001908201803590602001908080601f0160208091040260200160405190810160405280939291908181526020018383808284378201915050505050509192919290803590602001908201803590602001908080601f0160208091040260200160405190810160405280939291908181526020018383808284378201915050505050509192919290803590602001908201803590602001908080601f0160208091040260200160405190810160405280939291908181526020018383808284378201915050505050509192919290505050610737565b005b60608060608061040661084e565b6001866040518082805190602001908083835b60208310151561043e5780518252602082019150602081019050602083039250610419565b6001836020036101000a038019825116818451168082178552505050505050905001915050908152602001604051809103902060806040519081016040529081600082018054600181600116156101000203166002900480601f0160208091040260200160405190810160405280929190818152602001828054600181600116156101000203166002900480156105165780601f106104eb57610100808354040283529160200191610516565b820191906000526020600020905b8154815290600101906020018083116104f957829003601f168201915b50505050508152602001600182018054600181600116156101000203166002900480601f0160208091040260200160405190810160405280929190818152602001828054600181600116156101000203166002900480156105b85780601f1061058d576101008083540402835291602001916105b8565b820191906000526020600020905b81548152906001019060200180831161059b57829003601f168201915b50505050508152602001600282018054600181600116156101000203166002900480601f01602080910402602001604051908101604052809291908181526020018280546001816001161561010002031660029004801561065a5780601f1061062f5761010080835404028352916020019161065a565b820191906000526020600020905b81548152906001019060200180831161063d57829003601f168201915b50505050508152602001600382018054600181600116156101000203166002900480601f0160208091040260200160405190810160405280929190818152602001828054600181600116156101000203166002900480156106fc5780601f106106d1576101008083540402835291602001916106fc565b820191906000526020600020905b8154815290600101906020018083116106df57829003601f168201915b505050505081525050905080604001518160000151826020015183606001518393508292508191508090509450945094509450509193509193565b61073f61084e565b608060405190810160405280858152602001848152602001868152602001838152509050806001876040518082805190602001908083835b60208310151561079c5780518252602082019150602081019050602083039250610777565b6001836020036101000a038019825116818451168082178552505050505050905001915050908152602001604051809103902060008201518160000190805190602001906107eb929190610877565b506020820151816001019080519060200190610808929190610877565b506040820151816002019080519060200190610825929190610877565b506060820151816003019080519060200190610842929190610877565b50905050505050505050565b608060405190810160405280606081526020016060815260200160608152602001606081525090565b828054600181600116156101000203166002900490600052602060002090601f016020900481019282601f106108b857805160ff19168380011785556108e6565b828001600101855582156108e6579182015b828111156108e55782518255916020019190600101906108ca565b5b5090506108f391906108f7565b5090565b61091991905b808211156109155760008160009055506001016108fd565b5090565b905600a165627a7a7230582009cd689b248871546d46e7da2466642a0ff2c442c640d12574298a587da811100029",
  "source": "pragma solidity ^0.4.13;\r\n\r\ncontract ClaimData {\r\n    \r\n    //Contract owner\r\n    address owner;\r\n    \r\n    constructor() public {\r\n        owner = msg.sender;\r\n    } \r\n    \r\n    //Structure to store FIR Details\r\n    struct FirData{\r\n        string FIR_DATE;\r\n        string FIR_TITLE;\r\n        string SSN;\r\n        string FILE_HASH_LOCATION;\r\n    }\r\n    \r\n    mapping(string => FirData)  FirInfo;\r\n    \r\n    function saveFirData(string _firNo,string _ssn,string _firDate,string _firTitle,string _fileHashLocation) public{\r\n        \r\n        FirData memory userFirData;\r\n        \r\n        userFirData = FirData({\r\n            FIR_DATE:_firDate,\r\n            FIR_TITLE:_firTitle,\r\n            SSN:_ssn,\r\n            FILE_HASH_LOCATION:_fileHashLocation\r\n        });\r\n        \r\n        FirInfo[_firNo] = userFirData;\r\n        \r\n    }\r\n    \r\n    function getFirData(string _firNo) public returns (string _ssn,string _firDate,string _firTitle,string _fileHashLocation){\r\n        FirData memory u = FirInfo[_firNo];\r\n        return(u.SSN,u.FIR_DATE,u.FIR_TITLE,u.FILE_HASH_LOCATION);\r\n    }\r\n}",
  "sourcePath": "C:\\Users\\Sambit\\Desktop\\BLOCKCHAIN POC\\truffle-test\\contracts\\ClaimData.sol",
  "compiler": {
    "name": "solc",
    "version": "0.4.24+commit.e67f0147.Emscripten.clang"
  },
  "schemaVersion": "2.0.1",
  "updatedAt": "2018-08-12T19:23:15.299Z"
}